{
  "contractName": "CoinFlip",
  "abi": [
    {
      "anonymous": false,
      "inputs": [
        {
          "indexed": false,
          "internalType": "string",
          "name": "result",
          "type": "string"
        },
        {
          "indexed": false,
          "internalType": "string",
          "name": "randomChoice",
          "type": "string"
        },
        {
          "indexed": false,
          "internalType": "string",
          "name": "userChoice",
          "type": "string"
        },
        {
          "indexed": false,
          "internalType": "uint256",
          "name": "bet",
          "type": "uint256"
        }
      ],
      "name": "logFlipResult",
      "type": "event"
    },
    {
      "constant": true,
      "inputs": [],
      "name": "contractValue",
      "outputs": [
        {
          "internalType": "uint256",
          "name": "",
          "type": "uint256"
        }
      ],
      "payable": false,
      "stateMutability": "view",
      "type": "function"
    },
    {
      "constant": true,
      "inputs": [],
      "name": "owner",
      "outputs": [
        {
          "internalType": "address",
          "name": "",
          "type": "address"
        }
      ],
      "payable": false,
      "stateMutability": "view",
      "type": "function"
    },
    {
      "constant": true,
      "inputs": [],
      "name": "randomNumber",
      "outputs": [
        {
          "internalType": "uint256",
          "name": "",
          "type": "uint256"
        }
      ],
      "payable": false,
      "stateMutability": "view",
      "type": "function"
    },
    {
      "constant": true,
      "inputs": [],
      "name": "getResult",
      "outputs": [
        {
          "internalType": "string",
          "name": "",
          "type": "string"
        }
      ],
      "payable": false,
      "stateMutability": "view",
      "type": "function"
    },
    {
      "constant": false,
      "inputs": [
        {
          "internalType": "uint256",
          "name": "headsOrTails",
          "type": "uint256"
        }
      ],
      "name": "startGame",
      "outputs": [],
      "payable": true,
      "stateMutability": "payable",
      "type": "function"
    },
    {
      "constant": false,
      "inputs": [],
      "name": "emptyContract",
      "outputs": [
        {
          "internalType": "uint256",
          "name": "",
          "type": "uint256"
        }
      ],
      "payable": false,
      "stateMutability": "nonpayable",
      "type": "function"
    },
    {
      "constant": false,
      "inputs": [],
      "name": "fundContract",
      "outputs": [],
      "payable": true,
      "stateMutability": "payable",
      "type": "function"
    }
  ],
  "bytecode": "0x6080604052336000806101000a81548173ffffffffffffffffffffffffffffffffffffffff021916908373ffffffffffffffffffffffffffffffffffffffff160217905550610ac7806100536000396000f3fe6080604052600436106100705760003560e01c8063de2927891161004e578063de29278914610101578063e0dec0c014610191578063e3a8b345146101bc578063e5ed1d59146101e757610070565b80638da5cb5b14610075578063bd097e21146100cc578063ccbac9f5146100d6575b600080fd5b34801561008157600080fd5b5061008a610215565b604051808273ffffffffffffffffffffffffffffffffffffffff1673ffffffffffffffffffffffffffffffffffffffff16815260200191505060405180910390f35b6100d461023a565b005b3480156100e257600080fd5b506100eb61024c565b6040518082815260200191505060405180910390f35b34801561010d57600080fd5b50610116610252565b6040518080602001828103825283818151815260200191508051906020019080838360005b8381101561015657808201518184015260208101905061013b565b50505050905090810190601f1680156101835780820380516001836020036101000a031916815260200191505b509250505060405180910390f35b34801561019d57600080fd5b506101a661030b565b6040518082815260200191505060405180910390f35b3480156101c857600080fd5b506101d1610311565b6040518082815260200191505060405180910390f35b610213600480360360208110156101fd57600080fd5b81019080803590602001909291905050506103c9565b005b6000809054906101000a900473ffffffffffffffffffffffffffffffffffffffff1681565b34600360008282540192505081905550565b60015481565b60608060011515600260009054906101000a900460ff16151514156102ae576040518060400160405280600481526020017f57696e21000000000000000000000000000000000000000000000000000000008152509050610304565b60001515600260009054906101000a900460ff1615151415610303576040518060400160405280600581526020017f4c6f73652100000000000000000000000000000000000000000000000000000081525090505b5b8091505090565b60035481565b60008060009054906101000a900473ffffffffffffffffffffffffffffffffffffffff1673ffffffffffffffffffffffffffffffffffffffff163373ffffffffffffffffffffffffffffffffffffffff161461036c57600080fd5b6000600354905060006003819055503373ffffffffffffffffffffffffffffffffffffffff166108fc829081150290604051600060405180830381858888f193505050501580156103c1573d6000803e3d6000fd5b508091505090565b67016345785d8a00008034101561042b576040517f08c379a0000000000000000000000000000000000000000000000000000000008152600401808060200182810382526021815260200180610a726021913960400191505060405180910390fd5b671bc16d674ec80000803411156104aa576040517f08c379a000000000000000000000000000000000000000000000000000000000815260040180806020018281038252601d8152602001807f426574206e6565647320746f206265203220657468206f72206c65737300000081525060200191505060405180910390fd5b600354803410610505576040517f08c379a0000000000000000000000000000000000000000000000000000000008152600401808060200182810382526022815260200180610a506022913960400191505060405180910390fd5b60018414806105145750600284145b610586576040517f08c379a00000000000000000000000000000000000000000000000000000000081526004018080602001828103825260198152602001807f43686f696365206e6565647320746f2062652031206f7220320000000000000081525060200191505060405180910390fd5b60008490506000339050600034905060006002820290506060806105a8610a3a565b6001819055506001548614156105d8576001600260006101000a81548160ff0219169083151502179055506105f4565b6000600260006101000a81548160ff0219169083151502179055505b6002600154141561063c576040518060400160405280600581526020017f48656164730000000000000000000000000000000000000000000000000000008152509150610675565b6040518060400160405280600581526020017f5461696c7300000000000000000000000000000000000000000000000000000081525091505b60028614156106bb576040518060400160405280600581526020017f486561647300000000000000000000000000000000000000000000000000000081525090506106f4565b6040518060400160405280600581526020017f5461696c7300000000000000000000000000000000000000000000000000000081525090505b60011515600260009054906101000a900460ff16151514156108b6577f2cdd9df98e2d36f302dabdf28d5ca49c60a991028791746559b286d85291bbb282823460405180806020018060200180602001858152602001848103845260068152602001807f57696e6e65720000000000000000000000000000000000000000000000000000815250602001848103835287818151815260200191508051906020019080838360005b838110156107b657808201518184015260208101905061079b565b50505050905090810190601f1680156107e35780820380516001836020036101000a031916815260200191505b50848103825286818151815260200191508051906020019080838360005b8381101561081c578082015181840152602081019050610801565b50505050905090810190601f1680156108495780820380516001836020036101000a031916815260200191505b50965050505050505060405180910390a18473ffffffffffffffffffffffffffffffffffffffff166108fc849081150290604051600060405180830381858888f193505050501580156108a0573d6000803e3d6000fd5b5083600360008282540392505081905550610a2e565b60001515600260009054906101000a900460ff1615151415610a2d577f2cdd9df98e2d36f302dabdf28d5ca49c60a991028791746559b286d85291bbb282823460405180806020018060200180602001858152602001848103845260058152602001807f4c6f736572000000000000000000000000000000000000000000000000000000815250602001848103835287818151815260200191508051906020019080838360005b8381101561097857808201518184015260208101905061095d565b50505050905090810190601f1680156109a55780820380516001836020036101000a031916815260200191505b50848103825286818151815260200191508051906020019080838360005b838110156109de5780820151818401526020810190506109c3565b50505050905090810190601f168015610a0b5780820380516001836020036101000a031916815260200191505b50965050505050505060405180910390a1836003600082825401925050819055505b5b50505050505050505050565b6000600160024281610a4857fe5b060190509056fe426574206973206d6f7265207468616e2076616c7565206f6620636f6e7472616374426574206e6565647320746f206265206d6f7265207468616e20302e3120657468a265627a7a723158208b337d02b78cc572a5c105431d51ab461544962c92cb023747cc424b25fd17dd64736f6c634300050c0032",
  "source": "import \"./Ownable.sol\";\r\npragma solidity 0.5.12;\r\n\r\ncontract CoinFlip is Ownable {\r\n\r\n    uint public randomNumber;\r\n    bool resultBool;\r\n    uint public contractValue;\r\n\r\n    //Event logging result of coin flip\r\n    event logFlipResult (string result, string randomChoice, string userChoice, uint bet);\r\n\r\n    //Modifier making sure bet is at least minimum bet of 0.1 eth\r\n    modifier minBet(uint bet){\r\n        require(msg.value >= bet, \"Bet needs to be more than 0.1 eth\" );\r\n        _;\r\n    }\r\n\r\n    //Modifier making sure bet is not larger than max bet of 2 eth\r\n    modifier maxBet(uint bet){\r\n        require(msg.value <= bet, \"Bet needs to be 2 eth or less\" );\r\n        _;\r\n    }\r\n\r\n    //Modifier making sure bet is less than contract value\r\n    modifier lessThanContractValue(uint value){\r\n        require( msg.value < value, \"Bet is more than value of contract\");\r\n        _;\r\n    }\r\n\r\n    //Function generating pseudo random number between 1 & 2\r\n    function random() private view returns(uint) {\r\n        return now % 2 + 1;\r\n    }\r\n\r\n    //Function getting result of bet\r\n    function getResult() public view returns(string memory){\r\n        string memory betResult;\r\n\r\n        if(resultBool == true){\r\n            betResult = \"Win!\";\r\n        }\r\n        else if(resultBool == false){\r\n            betResult = \"Lose!\";\r\n        }\r\n\r\n        return(betResult);\r\n    }\r\n\r\n    //Function starting game, receiving payment and updating eth amount in contract after won or lost bet.\r\n    function startGame(uint headsOrTails) public payable minBet(0.1 ether) maxBet(2 ether) lessThanContractValue(contractValue) {\r\n        require(headsOrTails == 1 || headsOrTails == 2, \"Choice needs to be 1 or 2\");\r\n\r\n        uint userChoice = headsOrTails;\r\n\r\n        address payable player = msg.sender;\r\n        uint bet = msg.value;\r\n        uint payOut = bet * 2;\r\n        string memory randChoicePrint;\r\n        string memory userChoicePrint;\r\n\r\n        randomNumber = random();\r\n\r\n        if(userChoice == randomNumber){\r\n            resultBool = true;\r\n        }\r\n        else{\r\n            resultBool = false;\r\n        }\r\n\r\n        if(randomNumber == 2){\r\n            randChoicePrint = \"Heads\";\r\n        }\r\n        else{\r\n            randChoicePrint = \"Tails\";\r\n        }\r\n\r\n        if(userChoice == 2){\r\n            userChoicePrint = \"Heads\";\r\n        }\r\n        else{\r\n            userChoicePrint = \"Tails\";\r\n        }\r\n\r\n        //If player wins value of bet is subtracted from contracted and payed to player\r\n        if (resultBool == true){\r\n            emit logFlipResult(\"Winner\", randChoicePrint, userChoicePrint, msg.value);\r\n            player.transfer(payOut);\r\n            contractValue -= bet;\r\n        }\r\n\r\n        //If player loses value of bet is added to contract value\r\n        else if (resultBool == false){\r\n            emit logFlipResult(\"Loser\", randChoicePrint, userChoicePrint, msg.value);\r\n            contractValue += bet;\r\n        }\r\n    }\r\n\r\n    //Function allowing owner to empty contract\r\n    function emptyContract() public onlyOwner returns(uint) {\r\n        uint contractTotal = contractValue;\r\n        contractValue = 0;\r\n        msg.sender.transfer(contractTotal);\r\n        return contractTotal;\r\n    }\r\n\r\n    //Function allowing anyone to fund contract\r\n    function fundContract() public payable {\r\n        contractValue += msg.value;\r\n    }\r\n\r\n}\r\n",
  "sourcePath": "C:/Users/Simon/coinflip-dapp/coinflip/contracts/coinflip.sol",
  "compiler": {
    "name": "solc",
    "version": "0.5.12+commit.7709ece9.Emscripten.clang"
  },
  "schemaVersion": "3.0.16",
  "updatedAt": "2020-07-22T07:26:27.070Z",
  "devdoc": {
    "methods": {}
  },
  "userdoc": {
    "methods": {}
  }
}